{
  "_format": "hh-sol-artifact-1",
  "contractName": "InfiniteChalkboard",
  "sourceName": "contracts/InfiniteChalkboard.sol",
  "abi": [
    {
      "inputs": [],
      "stateMutability": "nonpayable",
      "type": "constructor"
    },
    {
      "anonymous": false,
      "inputs": [
        {
          "indexed": true,
          "internalType": "address",
          "name": "previousOwner",
          "type": "address"
        },
        {
          "indexed": true,
          "internalType": "address",
          "name": "newOwner",
          "type": "address"
        }
      ],
      "name": "OwnershipTransferred",
      "type": "event"
    },
    {
      "anonymous": false,
      "inputs": [
        {
          "indexed": false,
          "internalType": "string",
          "name": "_message",
          "type": "string"
        },
        {
          "indexed": false,
          "internalType": "address",
          "name": "_author",
          "type": "address"
        },
        {
          "indexed": false,
          "internalType": "uint256",
          "name": "_newCost",
          "type": "uint256"
        }
      ],
      "name": "Write",
      "type": "event"
    },
    {
      "inputs": [],
      "name": "author",
      "outputs": [
        {
          "internalType": "address payable",
          "name": "",
          "type": "address"
        }
      ],
      "stateMutability": "view",
      "type": "function"
    },
    {
      "inputs": [],
      "name": "cost",
      "outputs": [
        {
          "internalType": "uint256",
          "name": "",
          "type": "uint256"
        }
      ],
      "stateMutability": "view",
      "type": "function"
    },
    {
      "inputs": [],
      "name": "message",
      "outputs": [
        {
          "internalType": "string",
          "name": "",
          "type": "string"
        }
      ],
      "stateMutability": "view",
      "type": "function"
    },
    {
      "inputs": [],
      "name": "owner",
      "outputs": [
        {
          "internalType": "address",
          "name": "",
          "type": "address"
        }
      ],
      "stateMutability": "view",
      "type": "function"
    },
    {
      "inputs": [],
      "name": "renounceOwnership",
      "outputs": [],
      "stateMutability": "nonpayable",
      "type": "function"
    },
    {
      "inputs": [
        {
          "internalType": "address",
          "name": "newOwner",
          "type": "address"
        }
      ],
      "name": "transferOwnership",
      "outputs": [],
      "stateMutability": "nonpayable",
      "type": "function"
    },
    {
      "inputs": [],
      "name": "withdraw",
      "outputs": [],
      "stateMutability": "nonpayable",
      "type": "function"
    },
    {
      "inputs": [
        {
          "internalType": "string",
          "name": "_message",
          "type": "string"
        }
      ],
      "name": "write",
      "outputs": [],
      "stateMutability": "payable",
      "type": "function"
    }
  ],
  "bytecode": "0x608060405267016345785d8a000060015534801561001c57600080fd5b50600061002d61011160201b60201c565b9050806000806101000a81548173ffffffffffffffffffffffffffffffffffffffff021916908373ffffffffffffffffffffffffffffffffffffffff1602179055508073ffffffffffffffffffffffffffffffffffffffff16600073ffffffffffffffffffffffffffffffffffffffff167f8be0079c531659141344cd1fd0a4f28419497f9722a3daafe3b4186f6b6457e060405160405180910390a35033600360006101000a81548173ffffffffffffffffffffffffffffffffffffffff021916908373ffffffffffffffffffffffffffffffffffffffff160217905550610119565b600033905090565b610ca7806101286000396000f3fe60806040526004361061007b5760003560e01c8063a6c3e6b91161004e578063a6c3e6b91461011a578063e21f37ce1461015b578063ebaac771146101eb578063f2fde38b146102645761007b565b806313faede6146100805780633ccfd60b146100ab578063715018a6146100c25780638da5cb5b146100d9575b600080fd5b34801561008c57600080fd5b506100956102b5565b6040518082815260200191505060405180910390f35b3480156100b757600080fd5b506100c06102bb565b005b3480156100ce57600080fd5b506100d7610450565b005b3480156100e557600080fd5b506100ee6105bd565b604051808273ffffffffffffffffffffffffffffffffffffffff16815260200191505060405180910390f35b34801561012657600080fd5b5061012f6105e6565b604051808273ffffffffffffffffffffffffffffffffffffffff16815260200191505060405180910390f35b34801561016757600080fd5b5061017061060c565b6040518080602001828103825283818151815260200191508051906020019080838360005b838110156101b0578082015181840152602081019050610195565b50505050905090810190601f1680156101dd5780820380516001836020036101000a031916815260200191505b509250505060405180910390f35b6102626004803603602081101561020157600080fd5b810190808035906020019064010000000081111561021e57600080fd5b82018360208201111561023057600080fd5b8035906020019184600183028401116401000000008311171561025257600080fd5b90919293919293905050506106aa565b005b34801561027057600080fd5b506102b36004803603602081101561028757600080fd5b81019080803573ffffffffffffffffffffffffffffffffffffffff16906020019092919050505061096a565b005b60015481565b6102c3610b5c565b73ffffffffffffffffffffffffffffffffffffffff166102e16105bd565b73ffffffffffffffffffffffffffffffffffffffff161461036a576040517f08c379a00000000000000000000000000000000000000000000000000000000081526004018080602001828103825260208152602001807f4f776e61626c653a2063616c6c6572206973206e6f7420746865206f776e657281525060200191505060405180910390fd5b60006103746105bd565b73ffffffffffffffffffffffffffffffffffffffff164760405180600001905060006040518083038185875af1925050503d80600081146103d1576040519150601f19603f3d011682016040523d82523d6000602084013e6103d6565b606091505b505090508061044d576040517f08c379a00000000000000000000000000000000000000000000000000000000081526004018080602001828103825260108152602001807f5769746864726177206661696c65642e0000000000000000000000000000000081525060200191505060405180910390fd5b50565b610458610b5c565b73ffffffffffffffffffffffffffffffffffffffff166104766105bd565b73ffffffffffffffffffffffffffffffffffffffff16146104ff576040517f08c379a00000000000000000000000000000000000000000000000000000000081526004018080602001828103825260208152602001807f4f776e61626c653a2063616c6c6572206973206e6f7420746865206f776e657281525060200191505060405180910390fd5b600073ffffffffffffffffffffffffffffffffffffffff1660008054906101000a900473ffffffffffffffffffffffffffffffffffffffff1673ffffffffffffffffffffffffffffffffffffffff167f8be0079c531659141344cd1fd0a4f28419497f9722a3daafe3b4186f6b6457e060405160405180910390a360008060006101000a81548173ffffffffffffffffffffffffffffffffffffffff021916908373ffffffffffffffffffffffffffffffffffffffff160217905550565b60008060009054906101000a900473ffffffffffffffffffffffffffffffffffffffff16905090565b600360009054906101000a900473ffffffffffffffffffffffffffffffffffffffff1681565b60028054600181600116156101000203166002900480601f0160208091040260200160405190810160405280929190818152602001828054600181600116156101000203166002900480156106a25780601f10610677576101008083540402835291602001916106a2565b820191906000526020600020905b81548152906001019060200180831161068557829003601f168201915b505050505081565b600154341015610722576040517f08c379a00000000000000000000000000000000000000000000000000000000081526004018080602001828103825260158152602001807f496e73756666696369656e74207061796d656e742e000000000000000000000081525060200191505060405180910390fd5b6064828290501061077e576040517f08c379a0000000000000000000000000000000000000000000000000000000008152600401808060200182810382526027815260200180610c4b6027913960400191505060405180910390fd5b81816002919061078f929190610b64565b506000600360009054906101000a900473ffffffffffffffffffffffffffffffffffffffff1673ffffffffffffffffffffffffffffffffffffffff16606e606d3402816107d857fe5b0460405180600001905060006040518083038185875af1925050503d806000811461081f576040519150601f19603f3d011682016040523d82523d6000602084013e610824565b606091505b505090508061087e576040517f08c379a0000000000000000000000000000000000000000000000000000000008152600401808060200182810382526023815260200180610c286023913960400191505060405180910390fd5b33600360006101000a81548173ffffffffffffffffffffffffffffffffffffffff021916908373ffffffffffffffffffffffffffffffffffffffff160217905550600a600154816108cb57fe5b046001600082825401925050819055507e20462fec44b26d08d5cdb3204ef979e38ab68df00d06bc5fcc3fbe99cf8eaf83833360015460405180806020018473ffffffffffffffffffffffffffffffffffffffff1681526020018381526020018281038252868682818152602001925080828437600081840152601f19601f8201169050808301925050509550505050505060405180910390a1505050565b610972610b5c565b73ffffffffffffffffffffffffffffffffffffffff166109906105bd565b73ffffffffffffffffffffffffffffffffffffffff1614610a19576040517f08c379a00000000000000000000000000000000000000000000000000000000081526004018080602001828103825260208152602001807f4f776e61626c653a2063616c6c6572206973206e6f7420746865206f776e657281525060200191505060405180910390fd5b600073ffffffffffffffffffffffffffffffffffffffff168173ffffffffffffffffffffffffffffffffffffffff161415610a9f576040517f08c379a0000000000000000000000000000000000000000000000000000000008152600401808060200182810382526026815260200180610c026026913960400191505060405180910390fd5b8073ffffffffffffffffffffffffffffffffffffffff1660008054906101000a900473ffffffffffffffffffffffffffffffffffffffff1673ffffffffffffffffffffffffffffffffffffffff167f8be0079c531659141344cd1fd0a4f28419497f9722a3daafe3b4186f6b6457e060405160405180910390a3806000806101000a81548173ffffffffffffffffffffffffffffffffffffffff021916908373ffffffffffffffffffffffffffffffffffffffff16021790555050565b600033905090565b828054600181600116156101000203166002900490600052602060002090601f016020900481019282601f10610ba557803560ff1916838001178555610bd3565b82800160010185558215610bd3579182015b82811115610bd2578235825591602001919060010190610bb7565b5b509050610be09190610be4565b5090565b5b80821115610bfd576000816000905550600101610be5565b509056fe4f776e61626c653a206e6577206f776e657220697320746865207a65726f20616464726573735472616e7366657220746f2070726576696f757320617574686f72206661696c65642e4d657373616765206d75737420626520736d616c6c6572207468616e203130302062797465732ea26469706673582212206f6cd5ff6ce98e3c8e8c65ac06175b6f98270c3e51eea0b92363addfc74c5d1964736f6c63430007030033",
  "linkReferences": {},
  "deployedLinkReferences": {}
}